:10100000171101001301010097F20000938282FF83
:1010100017F30000130303FF6386620023A002009E
:101020009102DDBF970200009382422B17F300006C
:10103000130343FD97F300009383C3FC630973001C
:1010400003AE02002320C30191021103C5BF61203A
:1010500001A001A08346050099CA370700100505C5
:101060005C43858BF5DF14C383460500EDFA82806F
:1010700085679387C7219447D043D8478C4383C75C
:101080000701011136CA856632C83ACC2EC6230E36
:10109000F1001306000393868621370700108506AA
:1010A0005C43858BF5DF10C303C606006DFAF1467D
:1010B00037070010F155B357D5001010BD8BB2970C
:1010C00003C6C7FE5C43858BF5DF10C3F116E394BE
:1010D000B6FE05618280056539711305C52306DEFC
:1010E00022DC26DA4AD84ED652D456D2A537056528
:1010F00013050525853705651305C526A13F13058D
:10110000A002BD3705641305442DA93705651305F5
:10111000C52789371305E007A13F1305442D1D3F5F
:101120000565130585283D37494599371305442D35
:101130001537056513054529313FA5470545014785
:10114000AA86FD173A953687E5FF1D371305442D0E
:1011500011378567938787209043D443984732C8D7
:10116000DC4736CA05653ACC1305852A85690569C9
:101170003ECE8144C5359389492313090923370499
:101180000010A94A114A930600024A8705075C40ED
:10119000858BF5DF14C083460700EDFA2685C93D2F
:1011A0009306D0054E8705075C40858BF5DF14C09C
:1011B00083460700EDFA939724001810BA9703A509
:1011C00007FF7D355C40858BF5DF232054018504C6
:1011D000E39B44FB05651305852BAD3DE1669386D6
:1011E000F669370700101306E00202C6B24763C86B
:1011F000F600B24785073EC6B247E3DCF6FE5C4325
:08120000858BF5DF10C3D5B7A3
:10120800EFBEADDEBEBAFECA7856341221436587FA
:10121800307800003031323334353637383941428E
:10122800434445460000000020205B005D203D202F
:101238000000000048656C6C6F2066726F6D204D71
:10124800696E435055210A00524953432D56205286
:10125800563332494D432050726F636573736F7212
:101268000A000000546573742076616C75653A2035
:10127800000000003432202A2033203D20000000E6
:10128800313236202F2037203D2000004669626F1A
:101298006E6163636928313029203D200000000019
:1012A8004D656D6F727920746573743A0A00000099
:1012B80050726F6772616D20636F6D706C657465D5
:1012C8002E204C6F6F70696E672E2E2E0A0000005C
:0400000300001000E9
:00000001FF
